{
  "_format": "hh-sol-artifact-1",
  "contractName": "GNFT",
  "sourceName": "contracts/GNFT.sol",
  "abi": [
    {
      "inputs": [
        {
          "internalType": "string",
          "name": "name_",
          "type": "string"
        },
        {
          "internalType": "string",
          "name": "symbol_",
          "type": "string"
        }
      ],
      "stateMutability": "nonpayable",
      "type": "constructor"
    },
    {
      "anonymous": false,
      "inputs": [
        {
          "indexed": true,
          "internalType": "address",
          "name": "owner",
          "type": "address"
        },
        {
          "indexed": true,
          "internalType": "address",
          "name": "approved",
          "type": "address"
        },
        {
          "indexed": true,
          "internalType": "uint256",
          "name": "tokenId",
          "type": "uint256"
        }
      ],
      "name": "Approval",
      "type": "event"
    },
    {
      "anonymous": false,
      "inputs": [
        {
          "indexed": true,
          "internalType": "address",
          "name": "owner",
          "type": "address"
        },
        {
          "indexed": true,
          "internalType": "address",
          "name": "operator",
          "type": "address"
        },
        {
          "indexed": false,
          "internalType": "bool",
          "name": "approved",
          "type": "bool"
        }
      ],
      "name": "ApprovalForAll",
      "type": "event"
    },
    {
      "anonymous": false,
      "inputs": [
        {
          "indexed": true,
          "internalType": "address",
          "name": "from",
          "type": "address"
        },
        {
          "indexed": true,
          "internalType": "address",
          "name": "to",
          "type": "address"
        },
        {
          "indexed": true,
          "internalType": "uint256",
          "name": "tokenId",
          "type": "uint256"
        }
      ],
      "name": "Transfer",
      "type": "event"
    },
    {
      "inputs": [
        {
          "internalType": "address",
          "name": "to",
          "type": "address"
        },
        {
          "internalType": "uint256",
          "name": "tokenId",
          "type": "uint256"
        }
      ],
      "name": "approve",
      "outputs": [],
      "stateMutability": "nonpayable",
      "type": "function"
    },
    {
      "inputs": [
        {
          "internalType": "address",
          "name": "owner",
          "type": "address"
        }
      ],
      "name": "balanceOf",
      "outputs": [
        {
          "internalType": "uint256",
          "name": "",
          "type": "uint256"
        }
      ],
      "stateMutability": "view",
      "type": "function"
    },
    {
      "inputs": [
        {
          "internalType": "uint256",
          "name": "tokenId",
          "type": "uint256"
        }
      ],
      "name": "burn",
      "outputs": [],
      "stateMutability": "nonpayable",
      "type": "function"
    },
    {
      "inputs": [
        {
          "internalType": "uint256",
          "name": "tokenId",
          "type": "uint256"
        },
        {
          "internalType": "string",
          "name": "uri",
          "type": "string"
        }
      ],
      "name": "create",
      "outputs": [],
      "stateMutability": "nonpayable",
      "type": "function"
    },
    {
      "inputs": [
        {
          "internalType": "uint256",
          "name": "tokenId",
          "type": "uint256"
        }
      ],
      "name": "getApproved",
      "outputs": [
        {
          "internalType": "address",
          "name": "",
          "type": "address"
        }
      ],
      "stateMutability": "view",
      "type": "function"
    },
    {
      "inputs": [
        {
          "internalType": "address",
          "name": "owner",
          "type": "address"
        },
        {
          "internalType": "address",
          "name": "operator",
          "type": "address"
        }
      ],
      "name": "isApprovedForAll",
      "outputs": [
        {
          "internalType": "bool",
          "name": "",
          "type": "bool"
        }
      ],
      "stateMutability": "view",
      "type": "function"
    },
    {
      "inputs": [],
      "name": "name",
      "outputs": [
        {
          "internalType": "string",
          "name": "",
          "type": "string"
        }
      ],
      "stateMutability": "view",
      "type": "function"
    },
    {
      "inputs": [
        {
          "internalType": "uint256",
          "name": "tokenId",
          "type": "uint256"
        }
      ],
      "name": "ownerOf",
      "outputs": [
        {
          "internalType": "address",
          "name": "",
          "type": "address"
        }
      ],
      "stateMutability": "view",
      "type": "function"
    },
    {
      "inputs": [
        {
          "internalType": "address",
          "name": "from",
          "type": "address"
        },
        {
          "internalType": "address",
          "name": "to",
          "type": "address"
        },
        {
          "internalType": "uint256",
          "name": "tokenId",
          "type": "uint256"
        }
      ],
      "name": "safeTransferFrom",
      "outputs": [],
      "stateMutability": "nonpayable",
      "type": "function"
    },
    {
      "inputs": [
        {
          "internalType": "address",
          "name": "from",
          "type": "address"
        },
        {
          "internalType": "address",
          "name": "to",
          "type": "address"
        },
        {
          "internalType": "uint256",
          "name": "tokenId",
          "type": "uint256"
        },
        {
          "internalType": "bytes",
          "name": "data",
          "type": "bytes"
        }
      ],
      "name": "safeTransferFrom",
      "outputs": [],
      "stateMutability": "nonpayable",
      "type": "function"
    },
    {
      "inputs": [
        {
          "internalType": "address",
          "name": "operator",
          "type": "address"
        },
        {
          "internalType": "bool",
          "name": "approved",
          "type": "bool"
        }
      ],
      "name": "setApprovalForAll",
      "outputs": [],
      "stateMutability": "nonpayable",
      "type": "function"
    },
    {
      "inputs": [
        {
          "internalType": "bytes4",
          "name": "interfaceId",
          "type": "bytes4"
        }
      ],
      "name": "supportsInterface",
      "outputs": [
        {
          "internalType": "bool",
          "name": "",
          "type": "bool"
        }
      ],
      "stateMutability": "pure",
      "type": "function"
    },
    {
      "inputs": [],
      "name": "symbol",
      "outputs": [
        {
          "internalType": "string",
          "name": "",
          "type": "string"
        }
      ],
      "stateMutability": "view",
      "type": "function"
    },
    {
      "inputs": [
        {
          "internalType": "uint256",
          "name": "index",
          "type": "uint256"
        }
      ],
      "name": "tokenByIndex",
      "outputs": [
        {
          "internalType": "uint256",
          "name": "",
          "type": "uint256"
        }
      ],
      "stateMutability": "view",
      "type": "function"
    },
    {
      "inputs": [
        {
          "internalType": "address",
          "name": "owner",
          "type": "address"
        },
        {
          "internalType": "uint256",
          "name": "index",
          "type": "uint256"
        }
      ],
      "name": "tokenOfOwnerByIndex",
      "outputs": [
        {
          "internalType": "uint256",
          "name": "",
          "type": "uint256"
        }
      ],
      "stateMutability": "view",
      "type": "function"
    },
    {
      "inputs": [
        {
          "internalType": "uint256",
          "name": "tokenId",
          "type": "uint256"
        }
      ],
      "name": "tokenURI",
      "outputs": [
        {
          "internalType": "string",
          "name": "",
          "type": "string"
        }
      ],
      "stateMutability": "view",
      "type": "function"
    },
    {
      "inputs": [],
      "name": "totalSupply",
      "outputs": [
        {
          "internalType": "uint256",
          "name": "",
          "type": "uint256"
        }
      ],
      "stateMutability": "view",
      "type": "function"
    },
    {
      "inputs": [
        {
          "internalType": "address",
          "name": "from",
          "type": "address"
        },
        {
          "internalType": "address",
          "name": "to",
          "type": "address"
        },
        {
          "internalType": "uint256",
          "name": "tokenId",
          "type": "uint256"
        }
      ],
      "name": "transferFrom",
      "outputs": [],
      "stateMutability": "nonpayable",
      "type": "function"
    },
    {
      "inputs": [
        {
          "internalType": "uint256",
          "name": "tokenId",
          "type": "uint256"
        }
      ],
      "name": "uri",
      "outputs": [
        {
          "internalType": "string",
          "name": "",
          "type": "string"
        }
      ],
      "stateMutability": "view",
      "type": "function"
    }
  ],
  "bytecode": "0x60806040523480156200001157600080fd5b50604051620031aa380380620031aa833981810160405281019062000037919062000197565b818181600490805190602001906200005192919062000075565b5080600590805190602001906200006a92919062000075565b50505050506200037a565b82805462000083906200029f565b90600052602060002090601f016020900481019282620000a75760008555620000f3565b82601f10620000c257805160ff1916838001178555620000f3565b82800160010185558215620000f3579182015b82811115620000f2578251825591602001919060010190620000d5565b5b50905062000102919062000106565b5090565b5b808211156200012157600081600090555060010162000107565b5090565b60006200013c620001368462000233565b6200020a565b9050828152602081018484840111156200015557600080fd5b6200016284828562000269565b509392505050565b600082601f8301126200017c57600080fd5b81516200018e84826020860162000125565b91505092915050565b60008060408385031215620001ab57600080fd5b600083015167ffffffffffffffff811115620001c657600080fd5b620001d4858286016200016a565b925050602083015167ffffffffffffffff811115620001f257600080fd5b62000200858286016200016a565b9150509250929050565b60006200021662000229565b9050620002248282620002d5565b919050565b6000604051905090565b600067ffffffffffffffff8211156200025157620002506200033a565b5b6200025c8262000369565b9050602081019050919050565b60005b83811015620002895780820151818401526020810190506200026c565b8381111562000299576000848401525b50505050565b60006002820490506001821680620002b857607f821691505b60208210811415620002cf57620002ce6200030b565b5b50919050565b620002e08262000369565b810181811067ffffffffffffffff821117156200030257620003016200033a565b5b80604052505050565b7f4e487b7100000000000000000000000000000000000000000000000000000000600052602260045260246000fd5b7f4e487b7100000000000000000000000000000000000000000000000000000000600052604160045260246000fd5b6000601f19601f8301169050919050565b612e20806200038a6000396000f3fe608060405234801561001057600080fd5b50600436106101215760003560e01c806342842e0e116100ad57806395d89b411161007157806395d89b411461033e578063a22cb4651461035c578063b88d4fde14610378578063c87b56dd14610394578063e985e9c5146103c457610121565b806342842e0e1461027657806342966c68146102925780634f6ccce7146102ae5780636352211e146102de57806370a082311461030e57610121565b8063095ea7b3116100f4578063095ea7b3146101c05780630e89341c146101dc57806318160ddd1461020c57806323b872dd1461022a5780632f745c591461024657610121565b80630118fa491461012657806301ffc9a71461014257806306fdde0314610172578063081812fc14610190575b600080fd5b610140600480360381019061013b91906122bb565b6103f4565b005b61015c60048036038101906101579190612240565b610403565b60405161016991906125b9565b60405180910390f35b61017a61060d565b60405161018791906125d4565b60405180910390f35b6101aa60048036038101906101a59190612292565b61069f565b6040516101b79190612552565b60405180910390f35b6101da60048036038101906101d59190612204565b61077e565b005b6101f660048036038101906101f19190612292565b610888565b60405161020391906125d4565b60405180910390f35b61021461092d565b6040516102219190612776565b60405180910390f35b610244600480360381019061023f91906120fe565b61093a565b005b610260600480360381019061025b9190612204565b610cc5565b60405161026d9190612776565b60405180910390f35b610290600480360381019061028b91906120fe565b610da0565b005b6102ac60048036038101906102a79190612292565b610e0a565b005b6102c860048036038101906102c39190612292565b610e16565b6040516102d59190612776565b60405180910390f35b6102f860048036038101906102f39190612292565b610eab565b6040516103059190612552565b60405180910390f35b61032860048036038101906103239190612099565b610f5d565b6040516103359190612776565b60405180910390f35b610346611014565b60405161035391906125d4565b60405180910390f35b610376600480360381019061037191906121c8565b6110a6565b005b610392600480360381019061038d919061214d565b611212565b005b6103ae60048036038101906103a99190612292565b61126e565b6040516103bb91906125d4565b60405180910390f35b6103de60048036038101906103d991906120c2565b611313565b6040516103eb91906125b9565b60405180910390f35b6103ff3383836113a7565b5050565b60007f01ffc9a7000000000000000000000000000000000000000000000000000000007bffffffffffffffffffffffffffffffffffffffffffffffffffffffff1916827bffffffffffffffffffffffffffffffffffffffffffffffffffffffff191614806104ce57507f80ac58cd000000000000000000000000000000000000000000000000000000007bffffffffffffffffffffffffffffffffffffffffffffffffffffffff1916827bffffffffffffffffffffffffffffffffffffffffffffffffffffffff1916145b8061053657507f5b5e139f000000000000000000000000000000000000000000000000000000007bffffffffffffffffffffffffffffffffffffffffffffffffffffffff1916827bffffffffffffffffffffffffffffffffffffffffffffffffffffffff1916145b8061059e57507f0e89341c000000000000000000000000000000000000000000000000000000007bffffffffffffffffffffffffffffffffffffffffffffffffffffffff1916827bffffffffffffffffffffffffffffffffffffffffffffffffffffffff1916145b8061060657507f780e9d63000000000000000000000000000000000000000000000000000000007bffffffffffffffffffffffffffffffffffffffffffffffffffffffff1916827bffffffffffffffffffffffffffffffffffffffffffffffffffffffff1916145b9050919050565b60606004805461061c90612990565b80601f016020809104026020016040519081016040528092919081815260200182805461064890612990565b80156106955780601f1061066a57610100808354040283529160200191610695565b820191906000526020600020905b81548152906001019060200180831161067857829003601f168201915b5050505050905090565b60008073ffffffffffffffffffffffffffffffffffffffff166001600084815260200190815260200160002060009054906101000a900473ffffffffffffffffffffffffffffffffffffffff1673ffffffffffffffffffffffffffffffffffffffff161415610743576040517f08c379a000000000000000000000000000000000000000000000000000000000815260040161073a90612716565b60405180910390fd5b6003600083815260200190815260200160002060009054906101000a900473ffffffffffffffffffffffffffffffffffffffff169050919050565b600061078982610eab565b90508073ffffffffffffffffffffffffffffffffffffffff168373ffffffffffffffffffffffffffffffffffffffff1614156107fa576040517f08c379a00000000000000000000000000000000000000000000000000000000081526004016107f1906126d6565b60405180910390fd5b8073ffffffffffffffffffffffffffffffffffffffff163373ffffffffffffffffffffffffffffffffffffffff16148061083a57506108398133611313565b5b610879576040517f08c379a000000000000000000000000000000000000000000000000000000000815260040161087090612676565b60405180910390fd5b61088383836115fd565b505050565b60606006600083815260200190815260200160002080546108a890612990565b80601f01602080910402602001604051908101604052809291908181526020018280546108d490612990565b80156109215780601f106108f657610100808354040283529160200191610921565b820191906000526020600020905b81548152906001019060200180831161090457829003601f168201915b50505050509050919050565b6000600780549050905090565b600073ffffffffffffffffffffffffffffffffffffffff168373ffffffffffffffffffffffffffffffffffffffff1614156109aa576040517f08c379a00000000000000000000000000000000000000000000000000000000081526004016109a1906125f6565b60405180910390fd5b600073ffffffffffffffffffffffffffffffffffffffff168273ffffffffffffffffffffffffffffffffffffffff161415610a1a576040517f08c379a0000000000000000000000000000000000000000000000000000000008152600401610a1190612696565b60405180910390fd5b6000610a2582610eab565b90508373ffffffffffffffffffffffffffffffffffffffff168173ffffffffffffffffffffffffffffffffffffffff1614610a95576040517f08c379a0000000000000000000000000000000000000000000000000000000008152600401610a8c906126b6565b60405180910390fd5b8073ffffffffffffffffffffffffffffffffffffffff163373ffffffffffffffffffffffffffffffffffffffff161480610b025750610ad38261069f565b73ffffffffffffffffffffffffffffffffffffffff163373ffffffffffffffffffffffffffffffffffffffff16145b80610b135750610b128133611313565b5b610b52576040517f08c379a0000000000000000000000000000000000000000000000000000000008152600401610b4990612676565b60405180910390fd5b60016000808673ffffffffffffffffffffffffffffffffffffffff1673ffffffffffffffffffffffffffffffffffffffff1681526020019081526020016000206000828254610ba191906128a6565b9250508190555060016000808573ffffffffffffffffffffffffffffffffffffffff1673ffffffffffffffffffffffffffffffffffffffff1681526020019081526020016000206000828254610bf79190612850565b92505081905550826001600084815260200190815260200160002060006101000a81548173ffffffffffffffffffffffffffffffffffffffff021916908373ffffffffffffffffffffffffffffffffffffffff160217905550818373ffffffffffffffffffffffffffffffffffffffff168573ffffffffffffffffffffffffffffffffffffffff167fddf252ad1be2c89b69c2b068fc378daa952ba7f163c4a11628f55a4df523b3ef60405160405180910390a4610cb584836116bc565b610cbf8383611854565b50505050565b60008060008473ffffffffffffffffffffffffffffffffffffffff1673ffffffffffffffffffffffffffffffffffffffff168152602001908152602001600020548210610d47576040517f08c379a0000000000000000000000000000000000000000000000000000000008152600401610d3e90612736565b60405180910390fd5b600960008473ffffffffffffffffffffffffffffffffffffffff1673ffffffffffffffffffffffffffffffffffffffff168152602001908152602001600020600083815260200190815260200160002054905092915050565b610dab83838361093a565b610dc683838360405180602001604052806000815250611915565b610e05576040517f08c379a0000000000000000000000000000000000000000000000000000000008152600401610dfc90612656565b60405180910390fd5b505050565b610e1381611ae1565b50565b60006007805490508210610e5f576040517f08c379a0000000000000000000000000000000000000000000000000000000008152600401610e5690612736565b60405180910390fd5b60078281548110610e99577f4e487b7100000000000000000000000000000000000000000000000000000000600052603260045260246000fd5b90600052602060002001549050919050565b6000806001600084815260200190815260200160002060009054906101000a900473ffffffffffffffffffffffffffffffffffffffff169050600073ffffffffffffffffffffffffffffffffffffffff168173ffffffffffffffffffffffffffffffffffffffff161415610f54576040517f08c379a0000000000000000000000000000000000000000000000000000000008152600401610f4b90612716565b60405180910390fd5b80915050919050565b60008073ffffffffffffffffffffffffffffffffffffffff168273ffffffffffffffffffffffffffffffffffffffff161415610fce576040517f08c379a0000000000000000000000000000000000000000000000000000000008152600401610fc590612616565b60405180910390fd5b6000808373ffffffffffffffffffffffffffffffffffffffff1673ffffffffffffffffffffffffffffffffffffffff168152602001908152602001600020549050919050565b60606005805461102390612990565b80601f016020809104026020016040519081016040528092919081815260200182805461104f90612990565b801561109c5780601f106110715761010080835404028352916020019161109c565b820191906000526020600020905b81548152906001019060200180831161107f57829003601f168201915b5050505050905090565b8173ffffffffffffffffffffffffffffffffffffffff163373ffffffffffffffffffffffffffffffffffffffff161415611115576040517f08c379a000000000000000000000000000000000000000000000000000000000815260040161110c906126d6565b60405180910390fd5b80600260003373ffffffffffffffffffffffffffffffffffffffff1673ffffffffffffffffffffffffffffffffffffffff16815260200190815260200160002060008473ffffffffffffffffffffffffffffffffffffffff1673ffffffffffffffffffffffffffffffffffffffff16815260200190815260200160002060006101000a81548160ff0219169083151502179055508173ffffffffffffffffffffffffffffffffffffffff163373ffffffffffffffffffffffffffffffffffffffff167f17307eab39ab6107e8899845ad3d59bd9653f200f220920489ca2b5937696c318360405161120691906125b9565b60405180910390a35050565b61121d84848461093a565b61122984848484611915565b611268576040517f08c379a000000000000000000000000000000000000000000000000000000000815260040161125f90612656565b60405180910390fd5b50505050565b606060066000838152602001908152602001600020805461128e90612990565b80601f01602080910402602001604051908101604052809291908181526020018280546112ba90612990565b80156113075780601f106112dc57610100808354040283529160200191611307565b820191906000526020600020905b8154815290600101906020018083116112ea57829003601f168201915b50505050509050919050565b6000600260008473ffffffffffffffffffffffffffffffffffffffff1673ffffffffffffffffffffffffffffffffffffffff16815260200190815260200160002060008373ffffffffffffffffffffffffffffffffffffffff1673ffffffffffffffffffffffffffffffffffffffff16815260200190815260200160002060009054906101000a900460ff16905092915050565b600073ffffffffffffffffffffffffffffffffffffffff168373ffffffffffffffffffffffffffffffffffffffff161415611417576040517f08c379a000000000000000000000000000000000000000000000000000000000815260040161140e90612636565b60405180910390fd5b600073ffffffffffffffffffffffffffffffffffffffff166001600084815260200190815260200160002060009054906101000a900473ffffffffffffffffffffffffffffffffffffffff1673ffffffffffffffffffffffffffffffffffffffff16146114b9576040517f08c379a00000000000000000000000000000000000000000000000000000000081526004016114b0906126f6565b60405180910390fd5b60016000808573ffffffffffffffffffffffffffffffffffffffff1673ffffffffffffffffffffffffffffffffffffffff16815260200190815260200160002060008282546115089190612850565b92505081905550826001600084815260200190815260200160002060006101000a81548173ffffffffffffffffffffffffffffffffffffffff021916908373ffffffffffffffffffffffffffffffffffffffff16021790555080600660008481526020019081526020016000209080519060200190611588929190611e7d565b50818373ffffffffffffffffffffffffffffffffffffffff16600073ffffffffffffffffffffffffffffffffffffffff167fddf252ad1be2c89b69c2b068fc378daa952ba7f163c4a11628f55a4df523b3ef60405160405180910390a46115ee82611cdc565b6115f88383611854565b505050565b816003600083815260200190815260200160002060006101000a81548173ffffffffffffffffffffffffffffffffffffffff021916908373ffffffffffffffffffffffffffffffffffffffff160217905550600061165a82610eab565b9050818373ffffffffffffffffffffffffffffffffffffffff168273ffffffffffffffffffffffffffffffffffffffff167f8c5be1e5ebec7d5bd14f71427d1e84f3dd0314c0f7b2291e5b200ac8c7c3b92560405160405180910390a4505050565b6000600a600083815260200190815260200160002054905060008060008573ffffffffffffffffffffffffffffffffffffffff1673ffffffffffffffffffffffffffffffffffffffff168152602001908152602001600020549050808210156117e3576000600960008673ffffffffffffffffffffffffffffffffffffffff1673ffffffffffffffffffffffffffffffffffffffff168152602001908152602001600020600083815260200190815260200160002054905080600960008773ffffffffffffffffffffffffffffffffffffffff1673ffffffffffffffffffffffffffffffffffffffff16815260200190815260200160002060008581526020019081526020016000208190555082600a600083815260200190815260200160002081905550505b600960008573ffffffffffffffffffffffffffffffffffffffff1673ffffffffffffffffffffffffffffffffffffffff168152602001908152602001600020600082815260200190815260200160002060009055600a60008481526020019081526020016000206000905550505050565b600060016000808573ffffffffffffffffffffffffffffffffffffffff1673ffffffffffffffffffffffffffffffffffffffff168152602001908152602001600020546118a191906128a6565b905081600960008573ffffffffffffffffffffffffffffffffffffffff1673ffffffffffffffffffffffffffffffffffffffff16815260200190815260200160002060008381526020019081526020016000208190555080600a600084815260200190815260200160002081905550505050565b6000808473ffffffffffffffffffffffffffffffffffffffff163b1161193e5760019050611ad9565b60008490508073ffffffffffffffffffffffffffffffffffffffff1663c25d39b3338887876040518563ffffffff1660e01b8152600401611982949392919061256d565b602060405180830381600087803b15801561199c57600080fd5b505af19250505080156119cd57506040513d601f19601f820116820180604052508101906119ca9190612269565b60015b611a73576119d9612a80565b806308c379a01415611a3657506119ee612cf8565b806119f95750611a38565b806040517f08c379a0000000000000000000000000000000000000000000000000000000008152600401611a2d91906125d4565b60405180910390fd5b505b6040517f08c379a0000000000000000000000000000000000000000000000000000000008152600401611a6a90612656565b60405180910390fd5b7fc25d39b3000000000000000000000000000000000000000000000000000000007bffffffffffffffffffffffffffffffffffffffffffffffffffffffff1916817bffffffffffffffffffffffffffffffffffffffffffffffffffffffff191614925050505b949350505050565b6000611aec82610eab565b9050611af782610eab565b73ffffffffffffffffffffffffffffffffffffffff163373ffffffffffffffffffffffffffffffffffffffff161480611b635750611b348261069f565b73ffffffffffffffffffffffffffffffffffffffff163373ffffffffffffffffffffffffffffffffffffffff16145b80611b745750611b738133611313565b5b611bb3576040517f08c379a0000000000000000000000000000000000000000000000000000000008152600401611baa90612756565b60405180910390fd5b611bbe6000836115fd565b60016000808373ffffffffffffffffffffffffffffffffffffffff1673ffffffffffffffffffffffffffffffffffffffff1681526020019081526020016000206000828254611c0d91906128a6565b925050819055506001600083815260200190815260200160002060006101000a81549073ffffffffffffffffffffffffffffffffffffffff0219169055600660008381526020019081526020016000206000611c699190611f03565b81600073ffffffffffffffffffffffffffffffffffffffff168273ffffffffffffffffffffffffffffffffffffffff167fddf252ad1be2c89b69c2b068fc378daa952ba7f163c4a11628f55a4df523b3ef60405160405180910390a4611cce82611d31565b611cd881836116bc565b5050565b60078190806001815401808255809150506001900390600052602060002001600090919091909150556001600780549050611d1791906128a6565b600860008381526020019081526020016000208190555050565b60006008600083815260200190815260200160002054905060006001600780549050611d5d91906128a6565b905080821015611e1357600060078281548110611da3577f4e487b7100000000000000000000000000000000000000000000000000000000600052603260045260246000fd5b906000526020600020015490508060078481548110611deb577f4e487b7100000000000000000000000000000000000000000000000000000000600052603260045260246000fd5b9060005260206000200181905550826008600083815260200190815260200160002081905550505b6007805480611e4b577f4e487b7100000000000000000000000000000000000000000000000000000000600052603160045260246000fd5b600190038181906000526020600020016000905590556008600084815260200190815260200160002060009055505050565b828054611e8990612990565b90600052602060002090601f016020900481019282611eab5760008555611ef2565b82601f10611ec457805160ff1916838001178555611ef2565b82800160010185558215611ef2579182015b82811115611ef1578251825591602001919060010190611ed6565b5b509050611eff9190611f43565b5090565b508054611f0f90612990565b6000825580601f10611f215750611f40565b601f016020900490600052602060002090810190611f3f9190611f43565b5b50565b5b80821115611f5c576000816000905550600101611f44565b5090565b6000611f73611f6e846127b6565b612791565b905082815260208101848484011115611f8b57600080fd5b611f9684828561294e565b509392505050565b6000611fb1611fac846127e7565b612791565b905082815260208101848484011115611fc957600080fd5b611fd484828561294e565b509392505050565b600081359050611feb81612d8e565b92915050565b60008135905061200081612da5565b92915050565b60008135905061201581612dbc565b92915050565b60008151905061202a81612dbc565b92915050565b600082601f83011261204157600080fd5b8135612051848260208601611f60565b91505092915050565b600082601f83011261206b57600080fd5b813561207b848260208601611f9e565b91505092915050565b60008135905061209381612dd3565b92915050565b6000602082840312156120ab57600080fd5b60006120b984828501611fdc565b91505092915050565b600080604083850312156120d557600080fd5b60006120e385828601611fdc565b92505060206120f485828601611fdc565b9150509250929050565b60008060006060848603121561211357600080fd5b600061212186828701611fdc565b935050602061213286828701611fdc565b925050604061214386828701612084565b9150509250925092565b6000806000806080858703121561216357600080fd5b600061217187828801611fdc565b945050602061218287828801611fdc565b935050604061219387828801612084565b925050606085013567ffffffffffffffff8111156121b057600080fd5b6121bc87828801612030565b91505092959194509250565b600080604083850312156121db57600080fd5b60006121e985828601611fdc565b92505060206121fa85828601611ff1565b9150509250929050565b6000806040838503121561221757600080fd5b600061222585828601611fdc565b925050602061223685828601612084565b9150509250929050565b60006020828403121561225257600080fd5b600061226084828501612006565b91505092915050565b60006020828403121561227b57600080fd5b60006122898482850161201b565b91505092915050565b6000602082840312156122a457600080fd5b60006122b284828501612084565b91505092915050565b600080604083850312156122ce57600080fd5b60006122dc85828601612084565b925050602083013567ffffffffffffffff8111156122f957600080fd5b6123058582860161205a565b9150509250929050565b612318816128da565b82525050565b612327816128ec565b82525050565b600061233882612818565b612342818561282e565b935061235281856020860161295d565b61235b81612aa2565b840191505092915050565b600061237182612823565b61237b818561283f565b935061238b81856020860161295d565b61239481612aa2565b840191505092915050565b60006123ac601a8361283f565b91506123b782612ac0565b602082019050919050565b60006123cf60158361283f565b91506123da82612ae9565b602082019050919050565b60006123f260148361283f565b91506123fd82612b12565b602082019050919050565b600061241560298361283f565b915061242082612b3b565b604082019050919050565b6000612438602d8361283f565b915061244382612b8a565b604082019050919050565b600061245b60188361283f565b915061246682612bd9565b602082019050919050565b600061247e60208361283f565b915061248982612c02565b602082019050919050565b60006124a160188361283f565b91506124ac82612c2b565b602082019050919050565b60006124c460148361283f565b91506124cf82612c54565b602082019050919050565b60006124e760138361283f565b91506124f282612c7d565b602082019050919050565b600061250a60138361283f565b915061251582612ca6565b602082019050919050565b600061252d601f8361283f565b915061253882612ccf565b602082019050919050565b61254c81612944565b82525050565b6000602082019050612567600083018461230f565b92915050565b6000608082019050612582600083018761230f565b61258f602083018661230f565b61259c6040830185612543565b81810360608301526125ae818461232d565b905095945050505050565b60006020820190506125ce600083018461231e565b92915050565b600060208201905081810360008301526125ee8184612366565b905092915050565b6000602082019050818103600083015261260f8161239f565b9050919050565b6000602082019050818103600083015261262f816123c2565b9050919050565b6000602082019050818103600083015261264f816123e5565b9050919050565b6000602082019050818103600083015261266f81612408565b9050919050565b6000602082019050818103600083015261268f8161242b565b9050919050565b600060208201905081810360008301526126af8161244e565b9050919050565b600060208201905081810360008301526126cf81612471565b9050919050565b600060208201905081810360008301526126ef81612494565b9050919050565b6000602082019050818103600083015261270f816124b7565b9050919050565b6000602082019050818103600083015261272f816124da565b9050919050565b6000602082019050818103600083015261274f816124fd565b9050919050565b6000602082019050818103600083015261276f81612520565b9050919050565b600060208201905061278b6000830184612543565b92915050565b600061279b6127ac565b90506127a782826129c2565b919050565b6000604051905090565b600067ffffffffffffffff8211156127d1576127d0612a51565b5b6127da82612aa2565b9050602081019050919050565b600067ffffffffffffffff82111561280257612801612a51565b5b61280b82612aa2565b9050602081019050919050565b600081519050919050565b600081519050919050565b600082825260208201905092915050565b600082825260208201905092915050565b600061285b82612944565b915061286683612944565b9250827fffffffffffffffffffffffffffffffffffffffffffffffffffffffffffffffff0382111561289b5761289a6129f3565b5b828201905092915050565b60006128b182612944565b91506128bc83612944565b9250828210156128cf576128ce6129f3565b5b828203905092915050565b60006128e582612924565b9050919050565b60008115159050919050565b60007fffffffff0000000000000000000000000000000000000000000000000000000082169050919050565b600073ffffffffffffffffffffffffffffffffffffffff82169050919050565b6000819050919050565b82818337600083830152505050565b60005b8381101561297b578082015181840152602081019050612960565b8381111561298a576000848401525b50505050565b600060028204905060018216806129a857607f821691505b602082108114156129bc576129bb612a22565b5b50919050565b6129cb82612aa2565b810181811067ffffffffffffffff821117156129ea576129e9612a51565b5b80604052505050565b7f4e487b7100000000000000000000000000000000000000000000000000000000600052601160045260246000fd5b7f4e487b7100000000000000000000000000000000000000000000000000000000600052602260045260246000fd5b7f4e487b7100000000000000000000000000000000000000000000000000000000600052604160045260246000fd5b600060033d1115612a9f5760046000803e612a9c600051612ab3565b90505b90565b6000601f19601f8301169050919050565b60008160e01c9050919050565b7f7472616e736665722066726f6d207a65726f2061646472657373000000000000600082015250565b7f6f776e6572206973207a65726f20616464726573730000000000000000000000600082015250565b7f6d696e7420746f207a65726f2061646472657373000000000000000000000000600082015250565b7f7472616e7366657220746f206e6f6e204b41503732526563656976657220696d60008201527f706c656d656e7465720000000000000000000000000000000000000000000000602082015250565b7f63616c6c6572206973206e6f7420746f6b656e206f776e6572206f722061707060008201527f726f76616c20666f7220616c6c00000000000000000000000000000000000000602082015250565b7f7472616e7366657220746f207a65726f20616464726573730000000000000000600082015250565b7f7472616e736665722066726f6d206973206e6f7420746f6b656e206f776e6572600082015250565b7f617070726f76616c2073746174757320666f722073656c660000000000000000600082015250565b7f746f6b656e20616c7265616479206d696e746564000000000000000000000000600082015250565b7f746f6b656e206973206e6f742065786973747300000000000000000000000000600082015250565b7f696e646578206f7574206f6620626f756e647300000000000000000000000000600082015250565b7f63616c6c6572206973206e6f74206f776e6572206f7220617070726f76656400600082015250565b600060443d1015612d0857612d8b565b612d106127ac565b60043d036004823e80513d602482011167ffffffffffffffff82111715612d38575050612d8b565b808201805167ffffffffffffffff811115612d565750505050612d8b565b80602083010160043d038501811115612d73575050505050612d8b565b612d82826020018501866129c2565b82955050505050505b90565b612d97816128da565b8114612da257600080fd5b50565b612dae816128ec565b8114612db957600080fd5b50565b612dc5816128f8565b8114612dd057600080fd5b50565b612ddc81612944565b8114612de757600080fd5b5056fea26469706673582212208935f8b67c1eb129cf6c1f484271dd8c5b571b96f2640097e82a10bf5473112664736f6c63430008040033",
  "linkReferences": {},
  "deployedLinkReferences": {}
}