{
  "_format": "hh-sol-artifact-1",
  "contractName": "Bullet",
  "sourceName": "contracts/Bullet.sol",
  "abi": [
    {
      "inputs": [
        {
          "internalType": "string",
          "name": "name_",
          "type": "string"
        },
        {
          "internalType": "string",
          "name": "symbol_",
          "type": "string"
        }
      ],
      "stateMutability": "nonpayable",
      "type": "constructor"
    },
    {
      "anonymous": false,
      "inputs": [
        {
          "indexed": true,
          "internalType": "address",
          "name": "owner",
          "type": "address"
        },
        {
          "indexed": true,
          "internalType": "address",
          "name": "spender",
          "type": "address"
        },
        {
          "indexed": false,
          "internalType": "uint256",
          "name": "amount",
          "type": "uint256"
        }
      ],
      "name": "Approval",
      "type": "event"
    },
    {
      "anonymous": false,
      "inputs": [
        {
          "indexed": true,
          "internalType": "address",
          "name": "from",
          "type": "address"
        },
        {
          "indexed": true,
          "internalType": "address",
          "name": "to",
          "type": "address"
        },
        {
          "indexed": false,
          "internalType": "uint256",
          "name": "amount",
          "type": "uint256"
        }
      ],
      "name": "Transfer",
      "type": "event"
    },
    {
      "inputs": [
        {
          "internalType": "address",
          "name": "owner",
          "type": "address"
        },
        {
          "internalType": "address",
          "name": "spender",
          "type": "address"
        }
      ],
      "name": "allowance",
      "outputs": [
        {
          "internalType": "uint256",
          "name": "remaining",
          "type": "uint256"
        }
      ],
      "stateMutability": "view",
      "type": "function"
    },
    {
      "inputs": [
        {
          "internalType": "address",
          "name": "spender",
          "type": "address"
        },
        {
          "internalType": "uint256",
          "name": "amount",
          "type": "uint256"
        }
      ],
      "name": "approve",
      "outputs": [
        {
          "internalType": "bool",
          "name": "success",
          "type": "bool"
        }
      ],
      "stateMutability": "nonpayable",
      "type": "function"
    },
    {
      "inputs": [
        {
          "internalType": "address",
          "name": "owner",
          "type": "address"
        }
      ],
      "name": "balanceOf",
      "outputs": [
        {
          "internalType": "uint256",
          "name": "balance",
          "type": "uint256"
        }
      ],
      "stateMutability": "view",
      "type": "function"
    },
    {
      "inputs": [],
      "name": "decimals",
      "outputs": [
        {
          "internalType": "uint8",
          "name": "",
          "type": "uint8"
        }
      ],
      "stateMutability": "pure",
      "type": "function"
    },
    {
      "inputs": [
        {
          "internalType": "uint256",
          "name": "amount",
          "type": "uint256"
        }
      ],
      "name": "deposit",
      "outputs": [],
      "stateMutability": "payable",
      "type": "function"
    },
    {
      "inputs": [],
      "name": "name",
      "outputs": [
        {
          "internalType": "string",
          "name": "",
          "type": "string"
        }
      ],
      "stateMutability": "view",
      "type": "function"
    },
    {
      "inputs": [],
      "name": "symbol",
      "outputs": [
        {
          "internalType": "string",
          "name": "",
          "type": "string"
        }
      ],
      "stateMutability": "view",
      "type": "function"
    },
    {
      "inputs": [],
      "name": "totalSupply",
      "outputs": [
        {
          "internalType": "uint256",
          "name": "",
          "type": "uint256"
        }
      ],
      "stateMutability": "view",
      "type": "function"
    },
    {
      "inputs": [
        {
          "internalType": "address",
          "name": "to",
          "type": "address"
        },
        {
          "internalType": "uint256",
          "name": "amount",
          "type": "uint256"
        }
      ],
      "name": "transfer",
      "outputs": [
        {
          "internalType": "bool",
          "name": "success",
          "type": "bool"
        }
      ],
      "stateMutability": "nonpayable",
      "type": "function"
    },
    {
      "inputs": [
        {
          "internalType": "address",
          "name": "from",
          "type": "address"
        },
        {
          "internalType": "address",
          "name": "to",
          "type": "address"
        },
        {
          "internalType": "uint256",
          "name": "amount",
          "type": "uint256"
        }
      ],
      "name": "transferFrom",
      "outputs": [
        {
          "internalType": "bool",
          "name": "success",
          "type": "bool"
        }
      ],
      "stateMutability": "nonpayable",
      "type": "function"
    },
    {
      "inputs": [
        {
          "internalType": "uint256",
          "name": "amount",
          "type": "uint256"
        }
      ],
      "name": "withdraw",
      "outputs": [],
      "stateMutability": "nonpayable",
      "type": "function"
    }
  ],
  "bytecode": "0x60806040523480156200001157600080fd5b50604051620019ee380380620019ee833981810160405281019062000037919062000197565b818181600390805190602001906200005192919062000075565b5080600490805190602001906200006a92919062000075565b50505050506200037a565b82805462000083906200029f565b90600052602060002090601f016020900481019282620000a75760008555620000f3565b82601f10620000c257805160ff1916838001178555620000f3565b82800160010185558215620000f3579182015b82811115620000f2578251825591602001919060010190620000d5565b5b50905062000102919062000106565b5090565b5b808211156200012157600081600090555060010162000107565b5090565b60006200013c620001368462000233565b6200020a565b9050828152602081018484840111156200015557600080fd5b6200016284828562000269565b509392505050565b600082601f8301126200017c57600080fd5b81516200018e84826020860162000125565b91505092915050565b60008060408385031215620001ab57600080fd5b600083015167ffffffffffffffff811115620001c657600080fd5b620001d4858286016200016a565b925050602083015167ffffffffffffffff811115620001f257600080fd5b62000200858286016200016a565b9150509250929050565b60006200021662000229565b9050620002248282620002d5565b919050565b6000604051905090565b600067ffffffffffffffff8211156200025157620002506200033a565b5b6200025c8262000369565b9050602081019050919050565b60005b83811015620002895780820151818401526020810190506200026c565b8381111562000299576000848401525b50505050565b60006002820490506001821680620002b857607f821691505b60208210811415620002cf57620002ce6200030b565b5b50919050565b620002e08262000369565b810181811067ffffffffffffffff821117156200030257620003016200033a565b5b80604052505050565b7f4e487b7100000000000000000000000000000000000000000000000000000000600052602260045260246000fd5b7f4e487b7100000000000000000000000000000000000000000000000000000000600052604160045260246000fd5b6000601f19601f8301169050919050565b611664806200038a6000396000f3fe60806040526004361061009c5760003560e01c8063313ce56711610064578063313ce5671461019a57806370a08231146101c557806395d89b4114610202578063a9059cbb1461022d578063b6b55f251461026a578063dd62ed3e146102865761009c565b806306fdde03146100a1578063095ea7b3146100cc57806318160ddd1461010957806323b872dd146101345780632e1a7d4d14610171575b600080fd5b3480156100ad57600080fd5b506100b66102c3565b6040516100c391906110d9565b60405180910390f35b3480156100d857600080fd5b506100f360048036038101906100ee9190610e95565b610355565b60405161010091906110be565b60405180910390f35b34801561011557600080fd5b5061011e61036c565b60405161012b919061123b565b60405180910390f35b34801561014057600080fd5b5061015b60048036038101906101569190610e46565b610376565b60405161016891906110be565b60405180910390f35b34801561017d57600080fd5b5061019860048036038101906101939190610ed1565b61049d565b005b3480156101a657600080fd5b506101af610501565b6040516101bc9190611256565b60405180910390f35b3480156101d157600080fd5b506101ec60048036038101906101e79190610de1565b61050a565b6040516101f9919061123b565b60405180910390f35b34801561020e57600080fd5b50610217610552565b60405161022491906110d9565b60405180910390f35b34801561023957600080fd5b50610254600480360381019061024f9190610e95565b6105e4565b60405161026191906110be565b60405180910390f35b610284600480360381019061027f9190610ed1565b6105fb565b005b34801561029257600080fd5b506102ad60048036038101906102a89190610e0a565b61064b565b6040516102ba919061123b565b60405180910390f35b6060600380546102d29061139f565b80601f01602080910402602001604051908101604052809291908181526020018280546102fe9061139f565b801561034b5780601f106103205761010080835404028352916020019161034b565b820191906000526020600020905b81548152906001019060200180831161032e57829003601f168201915b5050505050905090565b60006103623384846106d2565b6001905092915050565b6000600254905090565b60003373ffffffffffffffffffffffffffffffffffffffff168473ffffffffffffffffffffffffffffffffffffffff1614610487576000600160008673ffffffffffffffffffffffffffffffffffffffff1673ffffffffffffffffffffffffffffffffffffffff16815260200190815260200160002060003373ffffffffffffffffffffffffffffffffffffffff1673ffffffffffffffffffffffffffffffffffffffff1681526020019081526020016000205490508083111561046f576040517f08c379a0000000000000000000000000000000000000000000000000000000008152600401610466906111fb565b60405180910390fd5b6104858533858461048091906112e3565b6106d2565b505b61049284848461089d565b600190509392505050565b6000811180156104b557506104b13361050a565b8111155b6104f4576040517f08c379a00000000000000000000000000000000000000000000000000000000081526004016104eb9061117b565b60405180910390fd5b6104fe3382610adc565b50565b60006012905090565b60008060008373ffffffffffffffffffffffffffffffffffffffff1673ffffffffffffffffffffffffffffffffffffffff168152602001908152602001600020549050919050565b6060600480546105619061139f565b80601f016020809104026020016040519081016040528092919081815260200182805461058d9061139f565b80156105da5780601f106105af576101008083540402835291602001916105da565b820191906000526020600020905b8154815290600101906020018083116105bd57829003601f168201915b5050505050905090565b60006105f133848461089d565b6001905092915050565b6000811161063e576040517f08c379a00000000000000000000000000000000000000000000000000000000081526004016106359061113b565b60405180910390fd5b6106483382610c6f565b50565b6000600160008473ffffffffffffffffffffffffffffffffffffffff1673ffffffffffffffffffffffffffffffffffffffff16815260200190815260200160002060008373ffffffffffffffffffffffffffffffffffffffff1673ffffffffffffffffffffffffffffffffffffffff16815260200190815260200160002054905092915050565b600073ffffffffffffffffffffffffffffffffffffffff168373ffffffffffffffffffffffffffffffffffffffff161415610742576040517f08c379a00000000000000000000000000000000000000000000000000000000081526004016107399061115b565b60405180910390fd5b600073ffffffffffffffffffffffffffffffffffffffff168273ffffffffffffffffffffffffffffffffffffffff1614156107b2576040517f08c379a00000000000000000000000000000000000000000000000000000000081526004016107a99061121b565b60405180910390fd5b80600160008573ffffffffffffffffffffffffffffffffffffffff1673ffffffffffffffffffffffffffffffffffffffff16815260200190815260200160002060008473ffffffffffffffffffffffffffffffffffffffff1673ffffffffffffffffffffffffffffffffffffffff168152602001908152602001600020819055508173ffffffffffffffffffffffffffffffffffffffff168373ffffffffffffffffffffffffffffffffffffffff167f8c5be1e5ebec7d5bd14f71427d1e84f3dd0314c0f7b2291e5b200ac8c7c3b92583604051610890919061123b565b60405180910390a3505050565b600073ffffffffffffffffffffffffffffffffffffffff168373ffffffffffffffffffffffffffffffffffffffff16141561090d576040517f08c379a0000000000000000000000000000000000000000000000000000000008152600401610904906110fb565b60405180910390fd5b600073ffffffffffffffffffffffffffffffffffffffff168273ffffffffffffffffffffffffffffffffffffffff16141561097d576040517f08c379a0000000000000000000000000000000000000000000000000000000008152600401610974906111db565b60405180910390fd5b6109868361050a565b8111156109c8576040517f08c379a00000000000000000000000000000000000000000000000000000000081526004016109bf9061119b565b60405180910390fd5b806000808573ffffffffffffffffffffffffffffffffffffffff1673ffffffffffffffffffffffffffffffffffffffff1681526020019081526020016000206000828254610a1691906112e3565b92505081905550806000808473ffffffffffffffffffffffffffffffffffffffff1673ffffffffffffffffffffffffffffffffffffffff1681526020019081526020016000206000828254610a6b919061128d565b925050819055508173ffffffffffffffffffffffffffffffffffffffff168373ffffffffffffffffffffffffffffffffffffffff167fddf252ad1be2c89b69c2b068fc378daa952ba7f163c4a11628f55a4df523b3ef83604051610acf919061123b565b60405180910390a3505050565b600073ffffffffffffffffffffffffffffffffffffffff168273ffffffffffffffffffffffffffffffffffffffff161415610b4c576040517f08c379a0000000000000000000000000000000000000000000000000000000008152600401610b439061111b565b60405180910390fd5b610b558261050a565b811115610b97576040517f08c379a0000000000000000000000000000000000000000000000000000000008152600401610b8e9061111b565b60405180910390fd5b806000808473ffffffffffffffffffffffffffffffffffffffff1673ffffffffffffffffffffffffffffffffffffffff1681526020019081526020016000206000828254610be591906112e3565b925050819055508060026000828254610bfe91906112e3565b92505081905550600073ffffffffffffffffffffffffffffffffffffffff168273ffffffffffffffffffffffffffffffffffffffff167fddf252ad1be2c89b69c2b068fc378daa952ba7f163c4a11628f55a4df523b3ef83604051610c63919061123b565b60405180910390a35050565b600073ffffffffffffffffffffffffffffffffffffffff168273ffffffffffffffffffffffffffffffffffffffff161415610cdf576040517f08c379a0000000000000000000000000000000000000000000000000000000008152600401610cd6906111bb565b60405180910390fd5b806000808473ffffffffffffffffffffffffffffffffffffffff1673ffffffffffffffffffffffffffffffffffffffff1681526020019081526020016000206000828254610d2d919061128d565b925050819055508060026000828254610d46919061128d565b925050819055508173ffffffffffffffffffffffffffffffffffffffff16600073ffffffffffffffffffffffffffffffffffffffff167fddf252ad1be2c89b69c2b068fc378daa952ba7f163c4a11628f55a4df523b3ef83604051610dab919061123b565b60405180910390a35050565b600081359050610dc681611600565b92915050565b600081359050610ddb81611617565b92915050565b600060208284031215610df357600080fd5b6000610e0184828501610db7565b91505092915050565b60008060408385031215610e1d57600080fd5b6000610e2b85828601610db7565b9250506020610e3c85828601610db7565b9150509250929050565b600080600060608486031215610e5b57600080fd5b6000610e6986828701610db7565b9350506020610e7a86828701610db7565b9250506040610e8b86828701610dcc565b9150509250925092565b60008060408385031215610ea857600080fd5b6000610eb685828601610db7565b9250506020610ec785828601610dcc565b9150509250929050565b600060208284031215610ee357600080fd5b6000610ef184828501610dcc565b91505092915050565b610f0381611329565b82525050565b6000610f1482611271565b610f1e818561127c565b9350610f2e81856020860161136c565b610f378161142f565b840191505092915050565b6000610f4f601a8361127c565b9150610f5a82611440565b602082019050919050565b6000610f7260168361127c565b9150610f7d82611469565b602082019050919050565b6000610f95600e8361127c565b9150610fa082611492565b602082019050919050565b6000610fb8601b8361127c565b9150610fc3826114bb565b602082019050919050565b6000610fdb601f8361127c565b9150610fe6826114e4565b602082019050919050565b6000610ffe601f8361127c565b91506110098261150d565b602082019050919050565b600061102160148361127c565b915061102c82611536565b602082019050919050565b600061104460188361127c565b915061104f8261155f565b602082019050919050565b600061106760218361127c565b915061107282611588565b604082019050919050565b600061108a601d8361127c565b9150611095826115d7565b602082019050919050565b6110a981611355565b82525050565b6110b88161135f565b82525050565b60006020820190506110d36000830184610efa565b92915050565b600060208201905081810360008301526110f38184610f09565b905092915050565b6000602082019050818103600083015261111481610f42565b9050919050565b6000602082019050818103600083015261113481610f65565b9050919050565b6000602082019050818103600083015261115481610f88565b9050919050565b6000602082019050818103600083015261117481610fab565b9050919050565b6000602082019050818103600083015261119481610fce565b9050919050565b600060208201905081810360008301526111b481610ff1565b9050919050565b600060208201905081810360008301526111d481611014565b9050919050565b600060208201905081810360008301526111f481611037565b9050919050565b600060208201905081810360008301526112148161105a565b9050919050565b600060208201905081810360008301526112348161107d565b9050919050565b600060208201905061125060008301846110a0565b92915050565b600060208201905061126b60008301846110af565b92915050565b600081519050919050565b600082825260208201905092915050565b600061129882611355565b91506112a383611355565b9250827fffffffffffffffffffffffffffffffffffffffffffffffffffffffffffffffff038211156112d8576112d76113d1565b5b828201905092915050565b60006112ee82611355565b91506112f983611355565b92508282101561130c5761130b6113d1565b5b828203905092915050565b600061132282611335565b9050919050565b60008115159050919050565b600073ffffffffffffffffffffffffffffffffffffffff82169050919050565b6000819050919050565b600060ff82169050919050565b60005b8381101561138a57808201518184015260208101905061136f565b83811115611399576000848401525b50505050565b600060028204905060018216806113b757607f821691505b602082108114156113cb576113ca611400565b5b50919050565b7f4e487b7100000000000000000000000000000000000000000000000000000000600052601160045260246000fd5b7f4e487b7100000000000000000000000000000000000000000000000000000000600052602260045260246000fd5b6000601f19601f8301169050919050565b7f7472616e736665722066726f6d207a65726f2061646472657373000000000000600082015250565b7f6275726e2066726f6d207a65726f206164647265737300000000000000000000600082015250565b7f616d6f756e74206973207a65726f000000000000000000000000000000000000600082015250565b7f7472616e73666572206f776e6572207a65726f20616464726573730000000000600082015250565b7f776974686472617720616d6f756e7420657863656564732062616c616e636500600082015250565b7f7472616e7366657220616d6f756e7420657863656564732062616c616e636500600082015250565b7f6d696e7420746f207a65726f2061646472657373000000000000000000000000600082015250565b7f7472616e7366657220746f207a65726f20616464726573730000000000000000600082015250565b7f7472616e7366657220616d6f756e74206578636565647320616c6c6f77616e6360008201527f6500000000000000000000000000000000000000000000000000000000000000602082015250565b7f7472616e73666572207370656e646572207a65726f2061646472657373000000600082015250565b61160981611317565b811461161457600080fd5b50565b61162081611355565b811461162b57600080fd5b5056fea2646970667358221220e04b8ce782cee07a3d8b3516711bf84eddfef83070076c528cb77afa02e2fde864736f6c63430008040033",
  "linkReferences": {},
  "deployedLinkReferences": {}
}